:020000040800F2
:100000000000052019A800088D0B00088F0B0008C0
:10001000910B0008930B0008950B000800000000EE
:10002000000000000000000000000000970B000826
:10003000990B0008000000009B0B00089D0B0008B6
:1000400069A8000869A8000869A8000869A800084C
:1000500069A8000869A8000869A8000869A800083C
:1000600069A8000869A8000869A8000869A800082C
:1000700069A8000869A8000869A8000869A800081C
:1000800069A8000869A8000869A8000869A800080C
:1000900069A8000869A8000869A8000869A80008FC
:1000A00069A8000869A8000869A8000869A80008EC
:1000B00069A8000869A8000869A8000869A80008DC
:1000C00069A8000869A8000869A8000869A80008CC
:1000D00069A8000869A8000869A8000869A80008BC
:1000E00069A8000869A8000869A8000869A80008AC
:1000F00069A8000869A8000869A8000869A800089C
:1001000069A8000869A8000869A8000869A800088B
:1001100069A8000869A8000869A8000869A800087B
:1001200069A8000869A8000869A8000869A800086B
:1001300069A8000869A8000869A8000869A800085B
:1001400069A8000869A8000869A8000869A800084B
:1001500069A8000869A8000869A8000869A800083B
:1001600069A8000869A8000869A8000869A800082B
:1001700069A8000869A8000869A800080000000034
:1001800069A8000869A8000869A8000869A800080B
:1001900069A8000869A8000869A8000869A80008FB
:1001A00069A8000869A8000869A8000869A80008EB
:1001B00069A8000869A8000869A8000869A80008DB
:0801C00069A8000869A8000805
:1001D00010B5054C237833B9044B13B10448AFF381
:1001E00000800123237010BD780000200000000073
:1001F000DCBD000808B5034B1BB103490348AFF34E
:10020000008008BD000000007C000020DCBD00086C
:10021000034613F8012B002AFBD1181A0138704746
:1002200001F0FF01102A2BDB10F0070F08D010F8A7
:10023000013B013A8B422DD010F0070F42B3F6D1AB
:10024000F0B441EA012141EA014122F007047FF0C4
:1002500000070023F0E80256083C85EA010586EA1B
:10026000010685FA47F5A3FA87F586FA47F6A5FA57
:1002700087F68EB9EED1F0BC01F0FF0102F0070263
:1002800032B110F8013B013A83EA010313B1F8D10E
:100290000020704701387047002D06BF35460338EF
:1002A000073815F0010F07D1013015F4807F02BF28
:1002B000013015F4C03F0130F0BC0138704700BF79
:1002C00053B94AB9002908BF00281CBF4FF0FF31BD
:1002D0004FF0FF3000F074B9ADF1080C6DE904CEB9
:1002E00000F006F8DDF804E0DDE9022304B0704711
:1002F0002DE9F047089D04468E46002B4DD18A42D9
:10030000944669D9B2FA82F252B101FA02F3C2F10B
:10031000200120FA01F10CFA02FC41EA030E94409C
:100320004FEA1C48210CBEFBF8F61FFA8CF708FBBD
:1003300016E341EA034306FB07F199420AD91CEB95
:10034000030306F1FF3080F01F81994240F21C81C7
:10035000023E63445B1AA4B2B3FBF8F008FB10330F
:1003600044EA034400FB07F7A7420AD91CEB040444
:1003700000F1FF3380F00A81A74240F20781644414
:10038000023840EA0640E41B00261DB1D440002399
:10039000C5E900433146BDE8F0878B4209D9002DFD
:1003A00000F0EF800026C5E9000130463146BDE887
:1003B000F087B3FA83F6002E4AD18B4202D38242F1
:1003C00000F2F980841A61EB030301209E46002DA0
:1003D000E0D0C5E9004EDDE702B9FFDEB2FA82F2F5
:1003E000002A40F09280A1EB0C014FEA1C471FFA53
:1003F0008CFE0126200CB1FBF7F307FB131140EA3A
:1004000001410EFB03F0884208D91CEB010103F106
:10041000FF3802D2884200F2CB804346091AA4B2C8
:10042000B1FBF7F007FB101144EA01440EFB00FE9C
:10043000A64508D91CEB040400F1FF3102D2A64501
:1004400000F2BB800846A4EB0E0440EA03409CE7A0
:10045000C6F12007B34022FA07FC4CEA030C20FA4D
:1004600007F401FA06F31C43F9404FEA1C4900FA6D
:1004700006F3B1FBF9F8200C1FFA8CFE09FB1811EA
:1004800040EA014108FB0EF0884202FA06F20BD95D
:100490001CEB010108F1FF3A80F08880884240F2AD
:1004A0008580A8F102086144091AA4B2B1FBF9F0F1
:1004B00009FB101144EA014100FB0EFE8E4508D9EC
:1004C0001CEB010100F1FF346CD28E456AD9023871
:1004D000614440EA0840A0FB0294A1EB0E01A14256
:1004E000C846A64656D353D05DB1B3EB080261EBC4
:1004F0000E0101FA07F722FA06F3F1401F43C5E99E
:10050000007100263146BDE8F087C2F12003D840D3
:100510000CFA02FC21FA03F3914001434FEA1C4715
:100520001FFA8CFEB3FBF7F007FB10360B0C43EA07
:10053000064300FB0EF69E4204FA02F408D91CEBB7
:10054000030300F1FF382FD29E422DD902386344B5
:100550009B1B89B2B3FBF7F607FB163341EA034155
:1005600006FB0EF38B4208D91CEB010106F1FF38A4
:1005700016D28B4214D9023E6144C91A46EA00469B
:1005800038E72E46284605E70646E3E61846F8E62D
:100590004B45A9D2B9EB020864EB0C0E0138A3E776
:1005A0004646EAE7204694E74046D1E7D0467BE757
:1005B000023B614432E7304609E76444023842E7CF
:1005C000704700BF38B504460D46002104F0EAF834
:1005D0000021204604F004F90021204604F0E6F84A
:1005E0000021204604F016F900221146204604F0AE
:1005F0002BF915B1284605F021FB204604F02CFD0F
:1006000038BD08B50B4670B1014682680AB10020BA
:1006100008BD0278032A01D00020F9E71846FFF749
:10062000D1FF0020F4E7084604F042FB6FF00C0015
:10063000EEE70022427082680AB10020704708B5D8
:100640000B460278032A01D0002008BD0146184657
:10065000FFF7B8FFF8E70000F8B50F4615461C464F
:10066000064668B19DB1F4B93378012B22D02989AF
:10067000384604F01FF8284603F0B4FB2046F8BDC6
:10068000154B6122154916480AF054F9EAE703238D
:100690003370B3680BB10020F1E731463846FFF7FD
:1006A00091FF0020EBE70023B360284603F09AFB9C
:1006B0002046E4E7B5600B4A1368013313602989CB
:1006C000384603F0F7FF084B1E60084B1F602846B2
:1006D00003F088FB2046D2E7F4BD000820BE0008E6
:1006E0002CBE0008940000209C00002098000020F0
:1006F000F8B506460F46002509E02068B86008B145
:1007000003F0DEFC204603F06DFB0028FAD09DB913
:10071000BC688CB16289B6F864309A420CD8012367
:100720006168304607F0BAFB05460028E5D0B0F115
:10073000FF3FECD1BC60EAE7F8BD000070B5B2B095
:100740000C46002A37D10C2005F094FB0546B22256
:100750001F4968460AF0BEF86846FFF759FD4FF496
:10076000C17281B2362003F09FFB0646A86068463E
:10077000FFF74EFD82B26946304603F0D3FDFDB16E
:1007800001262E706C602946204604F00BF81149B2
:10079000204604F00BF81049204604F021F83246B8
:1007A0000E49204604F050F829462046FFF7A0FFE6
:1007B000002032B070BD00212046FFF703FFC2E7E2
:1007C00029462046FFF7FEFE4FF0FF30F1E700BF5D
:1007D00054BE000859060008330600080306000846
:1007E00000B583B004F08EFB10B903B05DF804FBD4
:1007F000034B0193034B502201A904F085F8F4E761
:10080000147F36D83D07000872B6FEE700B5B5B0D4
:100810003022002128A80AF085F800212391249194
:10082000259126912791842202A80AF07BF802F0F4
:1008300049F9254B1A6C42F080521A641B6C03F084
:1008400080530093009B214A136823F4404343F4F0
:1008500080431360136803F440430193019B012319
:1008600028934FF4A023299302232E934FF4800260
:100870002F920422309248223192329303233393F1
:1008800028A801F0E7F9C8B90F2323930221249186
:10089000002325934FF480522692279323A801F03A
:1008A0005DFC68B90A4B029300231593219302A8BB
:1008B00001F030FD30B935B05DF804FBFFF7A4FF5F
:1008C000FFF7A2FFFFF7A0FF0038024000700040D2
:1008D0000001200000B59BB002F07EF9FFF796FF03
:1008E00000F020F800F09CF800F0ECF800F072F94D
:1008F00002F08AF9FFF774FF0246084901A80AF0DE
:100900006FF801A8FFF784FC0A2382B201A904480A
:1009100002F0FBFB00F0EEF9FCE700BF08BF0008A7
:10092000A0000020F0B58DB000240794089409942D
:100930000A940B94364B1A6B42F004021A631A6B3A
:1009400002F004020192019A1A6B42F080021A63CB
:100950001A6B02F080020292029A1A6B42F00102B4
:100960001A631A6B02F001020392039A1A6B42F0A7
:1009700002021A631A6B02F002020492049A1A6BC2
:1009800042F008021A631A6B02F008020592059AF7
:100990001A6B42F040021A631B6B03F0400306938C
:1009A000069B1C4F22464FF48141384602F084F8E2
:1009B000194D22464021284602F07EF84FF400539C
:1009C00007934FF488130893099407A9134801F07B
:1009D00077FF4FF4814307930126089609940A9400
:1009E00007A9384601F06CFF402307930896099445
:1009F0000A9407A9284601F063FF8023079308940F
:100A0000099407A9284601F05BFF0DB0F0BD00BFB7
:100A10000038024000040240001802400008024072
:100A200008B50B480B4B03604FF4E13343600023E0
:100A30008360C36003610C2242618361C36103620E
:100A4000436202F0F0FB00B908BDFFF7DDFEFBE7F3
:100A5000A00000200048004000B589B000230393A7
:100A600004930593069307930268144B9A4202D0AD
:100A700009B05DF804FB03F5F8331A6C42F48022E8
:100A80001A641A6C02F480220192019A1A6B42F0E5
:100A900008021A631B6B03F008030293029B4FF4D6
:100AA00040730393022304930323069307230793BE
:100AB00003A9034801F004FFDAE700BF0048004043
:100AC000000C024008B50C484FF0A0430360062319
:100AD00043600222C2600023036182610122C2617D
:100AE00003624362C262036302F0CEFB00B908BD39
:100AF000FFF78AFEFBE700BF2401002030B589B074
:100B00000023039304930593069307930368B3F1BB
:100B1000A04F01D009B030BD1A4C236B43F0010344
:100B20002363236B03F001030093009B4FF4E8530E
:100B3000039302230493032306930A230793124D7E
:100B400003A9284601F0BCFE4FF400730393002371
:100B50000493059303A9284601F0B2FE636B43F0AA
:100B600080036363636B03F080030193019B636CF9
:100B700043F480436364636C03F480430293029BF9
:100B8000C8E700BF0038024000000240FEE7FEE771
:100B9000FEE7FEE7FEE770477047704708B502F0D2
:100BA00027F808BD82B00A4B1A6C42F080521A64D2
:100BB0001A6C02F080520092009A5A6C42F4804201
:100BC0005A645B6C03F480430193019B02B070474D
:100BD00000380240F0B585B03C4FC0203870A821E5
:100BE00079700123BB70FE22FA70394EFF223270F9
:100BF0007270B2700024F470364D28706970AB705A
:100C0000EB7004F0A5FE3A787B781B0443EA02639C
:100C1000BA7843EA0223F9780B431A0202F47F02FE
:100C200042EA0162190A01F47F410A4342EA13636E
:100C300029490B60327873781B0443EA0263B27867
:100C400043EA0223F07803431A0202F47F0242EAE5
:100C50000062180A00F47F40024342EA13631F4A0D
:100C6000136028786B781B0443EA0063A87843EA92
:100C70000023ED782B43180200F47F0040EA056062
:100C80001D0A05F47F45284340EA1360144B1860A1
:100C9000144D15480290154801900094284602F022
:100CA000B9FE284602F048FF95F82D3013F0040FE6
:100CB00008D0284602F046FF0D490A4802F080FF9E
:100CC00005B0F0BD074802F05BFFF5E72C050020FA
:100CD00030050020280500206C050020700500204C
:100CE0006805002034050020893700089D100008A1
:100CF000F110000808B5034800F0C0F908F07AF9CF
:100D000008BD00BF340500202DE9F047324800F04F
:100D1000DDFC00285CD1304B998FD3F8408029B995
:100D20004FF0000A2C4B1B6B00213AE04FF4C172CC
:100D300003F0BAF882460028F4D0274B1F6B814697
:100D4000002421E0D9F8040040F2F452121B08EB11
:100D50000401304409F0BEFDFF68D7F80880A5F211
:100D6000F452361B06F2F4560024A51840F2F45350
:100D70009D42E7D8D9F8040008EB0401304409F09B
:100D8000A9FDD9F800902C46B9F1000FCAD0B9F8E6
:100D90000A200026E9E71A6842F000421A60DB6880
:100DA00001310D4A926B8A42F5D80B4B00229A63AF
:100DB0001B6803F58052526912F0800F05D003F5CD
:100DC000805380225A6100229A605046BDE8F08725
:100DD0004FF0000AF9E700BF143600202DE9F84F64
:100DE0008B462B4BDE6AD6F808A000242746BBF1C1
:100DF000000F32D03368002B35DBBBF80A9000259A
:100E000004EB090840F2F453984519D9DBF80410B3
:100E100040F2F452121B29440AEB040009F05AFD77
:100E2000F6683368002B21DBD6F808A0A8F2F45945
:100E30002D1B05F2F4553F1B07F2F4570024DFE7A2
:100E4000DBF804104A4629440AEB040009F042FD8D
:100E50004F44DBF800B04446C9E739460C4800F07F
:100E60009FFB002004E06FF0070001E06FF0070037
:100E7000074B1B6803F58052526912F0200F05D012
:100E800003F5805320225A6100225A60BDE8F88F92
:100E90001436002030B583B004462E482E4B036034
:100EA000012343604FF4804383604FF40063C360C9
:100EB000002303828DF8003080228DF80120E1228A
:100EC0008DF802208DF803308DF804308DF8053050
:100ED000C0F814D08361C3614FF40003036200F0D3
:100EE000B3FC28B994F82D3043F0040384F82D3076
:100EF000184D0423194A1A49284600F0D2FA04234F
:100F0000184A1949284600F00CFB062384F82C30B7
:100F10006B691A7884F826205A7884F827209A7802
:100F200084F82820DA7884F829201A7984F82A208D
:100F30005B7984F82B3040F2DC53A38494F82D3095
:100F400043F00A0384F82D30284600F0A7FD03B0D3
:100F500030BD00BF1436002000800240441E002037
:100F6000F40500207406002074050020F0B58DB053
:100F700000230793089309930A930B9302683A4B53
:100F80009A4201D00DB0F0BDA3F590431A6B42F028
:100F900000721A631A6B02F000720092009A1A6BC8
:100FA00042F080621A631A6B02F080620192019A29
:100FB0001A6B42F000621A631A6B02F0006202922E
:100FC000029A1A6B42F004021A631A6B02F00402CE
:100FD0000392039A1A6B42F001021A631A6B02F031
:100FE00001020492049A1A6B42F002021A631A6B0D
:100FF00002F002020592059A1A6B42F040021A634F
:101000001B6B03F040030693069B322307930226D3
:10101000089603250A950B240B9407A9134801F0A1
:101020004FFC862307930896002709970A950B948F
:1010300007A90F4801F044FC4FF4005307930896AA
:1010400009970A950B9407A90A4801F039FC4FF457
:1010500020530793089609970A950B9407A9064809
:1010600001F02EFC8EE700BF008002400008024025
:1010700000000240000402400018024038B5044657
:10108000FFF742FE20B1054623692146984700B983
:1010900038BD284602F0A6FEFAE7000010B5044667
:1010A00070B1732384F82E30742384F82F30084BEA
:1010B0006361084BA3612046FFF7ECFE002010BDE2
:1010C000054B40F206220549054809F033FCE8E7E4
:1010D00069A40008DD0D000824BF000840BF000817
:1010E0002CBE000808B501F08FFD08BD7047000058
:1010F00030B583B0044600230193009390F82D305F
:1011000013F0040F51D02B4B5B68002B35D04FF4FC
:1011100080520021274800F05CFB01F075FD019032
:101120006A460121234800F018FB01F06DFD019B88
:10113000C31AB3F57A7F20D8009B13F0200FEFD0AD
:101140006A4610211B4800F008FB009B13F0040FB7
:101150000AD0184A4FF40061D16013F0020F07D093
:10116000144B00229A6013E0124A0021D160F4E788
:10117000104B4FF480429A600AE00E48C268C2F3F6
:10118000CF028368C3F34F031A43002100F021FB11
:10119000084D0021284600F0C5FC284600F07EFCE2
:1011A0002046FFF7A3FF03B030BD024800F098FCD3
:1011B000F6E700BF143600205079137943EA002384
:1011C00007480B50D07893781B0443EA00635078AB
:1011D00043EA002312781343024A8B50704700BF42
:1011E0004080024044800240036803F580539A69BE
:1011F00042F400529A617047036803F580539A697C
:1012000022F400529A617047036803F580539A698B
:1012100042F002029A617047036803F580539A69AD
:1012200022F002029A6170472DE9F041AEB0054606
:1012300029B14FF40063C3604FF4804383600023FF
:10124000119312931393149315931693EB69002B38
:1012500040F0A3804FF4806317934FF4007318930A
:10126000002419941A941B941C941D9440271E97D3
:101270001F942094219422942394249425942694BA
:1012800080262796289429942A942B942C942D9484
:1012900029680B68464A1A40AB68E8680343179808
:1012A000034343F4007313430B602B68D3F80080AF
:1012B000012001F0AFFC2B68C3F800802B685F6051
:1012C0002B685F68012001F0A5FC2B685F602B682C
:1012D0009C602B68DC602A68936923F0BE031B04C2
:1012E0001B0C334393612B689F69012001F092FC32
:1012F0002B689F612B68DC612B68DF69012001F09E
:1013000089FC2B68DF6101944FF000730293039412
:101310004FF4001204920594069407940894042252
:1013200009920A934FF480330B934FF480030C938C
:101330004FF400530D930E960F9410942B6803F501
:1013400080539A691B4911401B4A0A439A612B68D2
:1013500003F580539C69012001F05CFC2B6803F5C8
:1013600080539C612B6803F58053144A1A602B68E4
:1013700003F580531C68012001F04CFC2B6803F539
:1013800080531C60AB69012B0AD06A690021284692
:10139000FFF712FF2EB0BDE8F081002317935CE742
:1013A0002B6803F58053D969054A0A43DA61ECE7F3
:1013B0000F8120FF233FDEF8040020028020C102BD
:1013C0004000010010B582B004460023019302687A
:1013D000136843F00803136003681B68019301203E
:1013E00001F018FC2368019A1A6002B010BD10B514
:1013F00082B00446002301930268136843F004039B
:10140000136003681B680193012001F003FC23684B
:10141000019A1A6002B010BD10B582B004460023D4
:101420000193036803F580539A6942F480129A612C
:10143000036803F580539B690193012001F0EAFBE7
:101440002368019A03F580539A6102B010BD10B56C
:1014500082B00446002301930268136823F004035A
:10146000136003681B680193012001F0D3FB23681C
:10147000019A1A6002B010BD10B582B00446002374
:1014800001930268136823F00803136003681B6864
:101490000193012001F0BEFB2368019A1A6002B09B
:1014A00010BD30B590F84540012C38D0012480F8AB
:1014B0004540022480F84440C1624FF0000C03E034
:1014C000CEF80C100CF1010C9C451CD24FEA4C15C7
:1014D00001EB4C1E4FF480144C5140F2F45404FBC9
:1014E0000C24CEF80840C4691CB94C5944F440049B
:1014F0004C515C1E6445E3D90CF1010401EB44142A
:10150000CEF80C40DEE7036803F580531961012330
:1015100080F84430002380F84530184630BD022062
:10152000FCE730B590F84540012C36D0012480F816
:101530004540022480F8444081624FF0000C03E0F3
:10154000CEF80C100CF1010C9C451AD24FEA4C1449
:1015500001EB4C1E4FF000450D5144F2F454CEF80F
:10156000044040F2F45404FB0C24CEF808405C1E06
:101570006445E5D90CF1010401EB4414CEF80C40AC
:10158000E0E7036803F58053D960012380F8443015
:10159000002380F84530184630BD0220FCE70000EB
:1015A00090F84530012B00F08A80012380F8453007
:1015B000022380F84430C9B1C36A1A68002A1DDBCF
:1015C00010B440F2F452914220D93E4AA2FB012CC1
:1015D0004FEA9C2C40F2F45202FB1C120AB10CF1AF
:1015E000010CBCF1010F11D000234AE0012380F867
:1015F0004430002280F8452018467047122380F8B6
:101600004430002380F84530012070471A6842F0CA
:1016100040521A60C36AC1F30C015960C26A136870
:1016200043F000431360C36ADB68C362036803F5D9
:101630008052526912F0040F08D003F5805304223F
:101640005A61036803F5805300225A60012380F831
:101650004430002380F8453018465DF8044B70474D
:10166000C26A40F2F45454600CF1FF329A4217D02F
:10167000C46A226842F000422260C26AD268C26232
:1016800001339C45D2D9C46A226822F040522260BC
:10169000002BE5D1C46A226842F080522260DFE765
:1016A000C46A226842F000522260074A02FB0C1210
:1016B00002F2F452C46AC2F30C026260D8E702205C
:1016C000704700BF0BB002AC0CFAFFFF90F845303A
:1016D000012B40D0012380F84530022380F84430AC
:1016E000836A1A68002A0EDB1A6812F4807F12D10E
:1016F0001A6812F4007F28D003630022426301229B
:101700008263DB688362012380F84430002280F822
:10171000452018467047826B01328263012A12D03D
:1017200043631A68C2F30D42043AC263026B9268C3
:101730000264DB688362012380F84430002380F870
:101740004530184670470363EAE7826B01328263D3
:10175000DB688362D7E702207047F8B590F8443021
:10176000DBB2822B33D005461646822380F8443004
:101770000068026902F01C022B8ADB029BB2134351
:101780008C0104F4F8641C4344F00104046101F08A
:101790003BFA074601E02B681C6914F0010F0DD0DD
:1017A00001F032FAC31BB3F5803FF4D3012385F86F
:1017B0004430002385F84530032007E02B685B693F
:1017C0009BB23360012385F844300020F8BD02202D
:1017D000FCE790F84430DBB2422B32D070B50546BE
:1017E000422380F844300668306900F01C002B8AE0
:1017F000DB029BB203438C0104F4F8641C4344F005
:10180000030492B272612B681C6101F0FDF9064677
:1018100001E02B681C6914F0010F0DD001F0F4F900
:10182000831BB3F5803FF4D3012385F844300023B4
:1018300085F84530032003E0012385F8443000207B
:1018400070BD02207047000070B582B00023019384
:10185000002800F00C81044690F84430002B32D070
:10186000844B5A6C42F480425A645B6C03F48043AC
:101870000093009B804B5A6822F400025A605A6819
:10188000216A0A435A60236803F580531A6842F0BC
:1018900001021A6001F0B8F90546236803F5805289
:1018A000126812F0010F13D001F0AEF9401BB0F531
:1018B000FA7FF2D9032584F84450002384F8453098
:1018C000284602B070BD80F84530FFF74FFBC7E7F0
:1018D0001D6925F01C0500F0F7FC684B0344684ABD
:1018E000934255D245F0080523681D614FF400422C
:1018F00000212046FFF76DFF0546002860D1FF203C
:1019000001F088F96368002B00F0918001F07CF908
:10191000064601AA01212046FFF71FFF01F074F9D6
:10192000801B41F28833984252D8019B13F0040F78
:10193000EFD04FF4805200212046FFF74AFF0028E5
:1019400052D101F061F9064601AA01212046FFF7B4
:1019500004FF01F059F9801B41F2883398424BD8BB
:10196000019B13F0200FEFD001AA10212046FFF7B2
:10197000F4FE00284CD1019B13F0040F50D04FF41B
:101980000062E26013F0020F4DD00023A3605EE01E
:101990003C4B03443C4A934202D845F00C05A3E774
:1019A0003A4B03443A4A93429ED33A4B03443A4A51
:1019B000934202D845F0040596E745F0100593E7F9
:1019C00001212046FFF730FC012584F8445077E7D9
:1019D00001212046FFF728FC012384F8443000232E
:1019E00084F8453003256BE701212046FFF71CFCF6
:1019F000012584F8445063E701212046FFF714FCD9
:101A0000012384F84430002384F84530032557E748
:101A100001212046FFF708FC012584F844504FE7D8
:101A20000022E260AEE74FF48043A3600FE0E2687B
:101A3000C2F3CF02A368C3F34F031A430021204629
:101A4000FFF7C7FE58B940F6FF7001F0E3F8002138
:101A50002046FFF7E9FB012384F8443030E70121F9
:101A60002046FFF7E1FB012584F8445028E70125D3
:101A700026E700BF003802400038014000D3CEFE08
:101A8000C0E1E40040F1E9FD3F787D0100796CFCA4
:101A9000005A6202001F0AFA7FF0FA0238B590F885
:101AA0004530012B1AD00446012580F84550022309
:101AB00080F84430FFF786FC2046FFF798FC20466C
:101AC000FFF7AAFC2046FFF78FFB2046FFF79CFBA1
:101AD00084F84450002084F8450038BD0220FCE71B
:101AE00038B590F84530012B1AD00446012580F80E
:101AF0004550022380F84430FFF77EFB2046FFF775
:101B00008BFB2046FFF7A3FC2046FFF785FC204611
:101B1000FFF7B2FC84F84450002084F8450038BD3B
:101B20000220FCE790F84530012B00F08E8070B564
:101B300005460C46012380F84530022380F84430E6
:101B4000002971D002681368414919402368606810
:101B50000343A0680343E0680343A8680343206984
:101B6000034360690343E8680343A0690343E069F2
:101B70000343206A0343606A0343A06A03430B43A1
:101B800013602B681E68012001F044F82B681E606A
:101B9000E36A226B1343626B1343A26B1343E26B42
:101BA0001343226C1343626C1343A16C2A680B43EA
:101BB00053602B685E68012001F02CF82B685E6092
:101BC0002B68E26C9A602B68226DDA6029688A695A
:101BD00022F0BE021204120C606DA36D43EA0043B2
:101BE000E06D0343206E0343606E0343A06E034326
:101BF00013438B612B689E69012001F00BF82B6861
:101C00009E61E36E216F2A680B43D3612B68DC6908
:101C1000012000F0FFFF2B68DC61012385F84430D0
:101C2000002085F8450070BD01680A6822F49042E2
:101C30008368C068034313430B602B681C68012052
:101C400000F0E8FF2B681C60E7E70220704700BF48
:101C50000F8120FF002800F0FF8170B582B004469C
:101C6000036813F0010F29D0954B9B6803F00C0318
:101C7000042B1AD0924B9B6803F00C03082B0FD057
:101C80006368B3F5803F40D0002B54D18C4B1A6869
:101C900022F480321A601A6822F480221A6039E035
:101CA000874B5B6813F4800FEAD0854B1B6813F4F5
:101CB000003F03D06368002B00F0D081236813F04D
:101CC000020F74D07E4B9B6813F00C0F5ED07C4BE0
:101CD0009B6803F00C03082B53D0E368002B00F043
:101CE0008980774A136843F00103136000F08CFF8A
:101CF0000546734B1B6813F0020F72D100F084FF8E
:101D0000401B0228F5D90320ADE16D4A136843F466
:101D10008033136063682BB300F076FF0546684B91
:101D20001B6813F4003FC9D100F06EFF401B64280C
:101D3000F5D9032097E1B3F5A02F09D0604B1A68BD
:101D400022F480321A601A6822F480221A60E1E7D5
:101D50005B4B1A6842F480221A601A6842F480329F
:101D60001A60D7E700F050FF0546554B1B6813F487
:101D7000003FA3D000F048FF401B6428F5D90320A2
:101D800071E14F4B5B6813F4800FA6D14C4B1B687D
:101D900013F0020F03D0E368012B40F06181484A41
:101DA000136823F0F803216943EAC1031360236831
:101DB00013F0080F46D0636983B3414A536F43F071
:101DC0000103536700F020FF05463D4B5B6F13F0A6
:101DD000020F37D100F018FF401B0228F5D903206D
:101DE00041E1374A136823F0F803216943EAC1034C
:101DF0001360DCE7324A136823F00103136000F03C
:101E000003FF05462E4B1B6813F0020FCFD000F0E6
:101E1000FBFE401B0228F5D9032024E1284A536F1A
:101E200023F00103536700F0EFFE0546244B5B6F80
:101E300013F0020F06D000F0E7FE401B0228F5D990
:101E4000032010E1236813F0040F7DD01C4B1B6CA2
:101E500013F0805F1ED11A4B1A6C42F080521A6444
:101E60001B6C03F080530193019B0125154B1B68EC
:101E700013F4807F10D0A368012B25D0002B3BD119
:101E80000F4B1A6F22F001021A671A6F22F0040238
:101E90001A671EE00025E9E70A4A136843F48073D5
:101EA000136000F0B1FE0646064B1B6813F4807FFA
:101EB000E1D100F0A9FE801B6428F5D90320D2E00F
:101EC00000380240007000406E4A136F43F0010377
:101ED0001367A36833B300F097FE0646694B1B6F88
:101EE00013F0020F2FD100F08FFE801B41F28833D8
:101EF0009842F3D90320B6E0052B09D0614B1A6F45
:101F000022F001021A671A6F22F004021A67E0E752
:101F10005C4B1A6F42F004021A671A6F42F001021A
:101F20001A67D6E700F070FE0646564B1B6F13F09B
:101F3000020F08D000F068FE801B41F288339842FF
:101F4000F3D903208FE0FDB9A369002B00F08A804C
:101F50004C4A926802F00C02082A58D0022B19D081
:101F6000484A136823F08073136000F04DFE044666
:101F7000444B1B6813F0007F47D000F045FE001B68
:101F80000228F5D903206EE03E4A136C23F08053FB
:101F90001364D9E73B4A136823F08073136000F0A1
:101FA00033FE0546374B1B6813F0007F06D000F068
:101FB0002BFE401B0228F5D9032054E0E369226A76
:101FC0001343626A43EA8213A26A5208013A43EA5F
:101FD0000243E26A43EA026343F00053294A536032
:101FE000136843F08073136000F00EFE0446254B27
:101FF0001B6813F0007F06D100F006FE001B0228CC
:10200000F5D903202FE000202DE000202BE01D4A11
:102010005268012B29D002F48003E1698B4226D15A
:1020200002F03F03216A8B4223D1616A47F6C073F5
:102030001340B3EB811F1ED102F44031A36A5B0849
:10204000013BB1EB034F18D102F07062E36AB2EBCF
:10205000036F14D1002006E001207047012002E048
:10206000012000E0002002B070BD0120FBE701204C
:10207000F9E70120F7E70120F5E70120F3E7012068
:10208000F1E700BF0038024008B5314B9B6803F010
:102090000C03042B57D0082B57D12D4B5A6802F054
:1020A0003F025B6813F4800F2AD0294B5968C1F3B3
:1020B000881C4FEA4C11B1EB0C006EEB0E0E4FEA90
:1020C0008E1343EA90638101091A63EB0E03DB0070
:1020D00043EA5173C90011EB0C0C43F100035902A0
:1020E00000234FEA4C2041EADC51FEF7E9F8184B97
:1020F0005B68C3F3014301335B00B0FBF3F025E001
:10210000134B5968C1F3881C4FEA4C11B1EB0C001A
:102110006EEB0E0E4FEA8E1343EA90638101091AAB
:1021200063EB0E03DB0043EA5173C90011EB0C0CA7
:1021300043F10003990200234FEA8C2041EA9C51AD
:10214000FEF7BEF8D3E7034800E0034808BD00BF30
:102150000038024000127A000024F400002800F049
:10216000A08070B50D460446524B1B6803F00F0368
:102170008B420BD24F4A136823F00F030B431360BB
:10218000136803F00F038B4240F08D80236813F037
:10219000020F17D013F0040F04D0474A936843F49A
:1021A000E0539360236813F0080F04D0424A936809
:1021B00043F460439360404A936823F0F003A168BE
:1021C0000B439360236813F0010F31D06368012B38
:1021D00020D0022B25D0384A126812F0020F64D0AA
:1021E00035498A6822F0030213438B6000F00CFD2E
:1021F0000646314B9B6803F00C036268B3EB820F19
:1022000016D000F001FD801B41F288339842F0D9CE
:10221000032045E0284A126812F4003FE0D1012073
:102220003EE0254A126812F0007FD9D1012037E044
:10223000204B1B6803F00F03AB420AD91D4A1368F9
:1022400023F00F032B431360136803F00F03AB421B
:102250002DD1236813F0040F06D0174A936823F496
:10226000E053E1680B439360236813F0080F07D035
:10227000114A936823F46043216943EAC1039360E0
:10228000FFF702FF0C4B9B68C3F303130B4AD35CAD
:10229000D8400B4B18600B4B186800F077FC0020FF
:1022A00070BD012070470120FAE70120F8E7012006
:1022B000F6E700BF003C02400038024050BF000873
:1022C0000800002004000020014B1868704700BF80
:1022D0000800002008B5FFF7F7FF044B9B68C3F325
:1022E0008223034AD35CD84008BD00BF00380240B7
:1022F00060BF000808B5FFF7E7FF044B9B68C3F316
:102300004233034AD35CD84008BD00BF00380240C6
:1023100060BF0008F0B583B00446066816F00106F9
:102320000DD0A74B9A6822F400029A609A68416B1C
:102330000A439A60436B002B00F039810026256820
:1023400015F4002511D09E4AD2F88C3023F44013A6
:10235000E16B0B43C2F88C30E36BB3F5801F00F0E8
:102360002881002B00F027810025236813F4801FAB
:102370000FD0934AD2F88C3023F44003216C0B43E6
:10238000C2F88C30236CB3F5800F00F0168103B9CE
:102390000125236813F0807F00D0012613F0200F61
:1023A00040F01081236813F0100F0CD0844BD3F849
:1023B0008C2022F08072C3F88C20D3F88C20A16B83
:1023C0000A43C3F88C20236813F4804F08D07C4A5A
:1023D000D2F8903023F44033616E0B43C2F8903052
:1023E000236813F4004F08D0754AD2F8903023F4D4
:1023F0004023A16E0B43C2F89030236813F4803F52
:1024000008D06F4AD2F8903023F44013E16E0B43AA
:10241000C2F89030236813F4003F08D0684AD2F81D
:10242000903023F44003216F0B43C2F890302368AF
:1024300013F0400F08D0624AD2F8903023F0030323
:10244000616C0B43C2F89030236813F0800F08D002
:102450005B4AD2F8903023F00C03A16C0B43C2F816
:102460009030236813F4807F08D0554AD2F890301A
:1024700023F03003E16C0B43C2F89030236813F46F
:10248000007F08D04E4AD2F8903023F0C003216D6F
:102490000B43C2F89030236813F4806F08D0484A89
:1024A000D2F8903023F44073616D0B43C2F8903042
:1024B000236813F4006F08D0414AD2F8903023F417
:1024C0004063A16D0B43C2F89030236813F4805F22
:1024D00008D03B4AD2F8903023F44053E16D0B43CF
:1024E000C2F89030236813F4005F08D0344AD2F861
:1024F000903023F44043216E0B43C2F890302368A0
:1025000013F4800F08D02E4AD2F8903023F0806365
:10251000A16F0B43C2F89030236813F4001F0DD055
:10252000274AD2F8903023F00063E16F0B43C2F8E2
:102530009030E36FB3F1006F00F0AA80236813F0CE
:10254000080F00D0012513F4802F08D01C4AD2F8C0
:10255000903023F04073616F0B43C2F890302368D2
:1025600013F4000F09D0164AD2F8903023F08053AC
:10257000D4F880100B43C2F8903026B9236813F0CA
:10258000007F00F005810E4A136823F0806313601A
:1025900000F03AFB06460A4B1B6813F0006F79D037
:1025A00000F032FB801B6428F5D90320F3E00126FC
:1025B000C5E60126D5E60125D7E60126E7E600BFF8
:1025C000003802407F4B1A6C42F080521A641B6C38
:1025D00003F080530193019B7B4A136843F480739B
:1025E000136000F011FB0746774B1B6813F4807FE4
:1025F00006D100F009FBC01B6428F5D90320CAE00E
:10260000704B1B6F13F4407315D0226B02F44072B1
:102610009A4210D06B4B1A6F22F44072196F41F43A
:1026200080311967196F21F4803119671A671B6FA0
:1026300013F0010F12D1236B03F44072B2F5407F07
:102640001DD0604A936823F4F81393605D490B6FC3
:10265000226BC2F30B0213430B67A3E600F0D4FA1C
:102660000746584B1B6F13F0020FE4D100F0CCFA71
:10267000C01B41F288339842F3D903208BE05148C4
:10268000826822F4F812514919400A438260DDE75A
:10269000012553E7236813F0010F13D0636B8BB947
:1026A000484AD2F88430D2F88410606803F440338A
:1026B00043EA801301F070610B43A16843EA0173A0
:1026C000C2F88430236813F4002F03D0E26BB2F514
:1026D000801F06D013F4801F1ED0236CB3F5800F2B
:1026E0001AD1384AD2F88430D2F88410606803F4E2
:1026F000403343EA8013E06843EA006301F0E041BD
:102700000B43C2F88430D2F88C3023F01F03616A87
:1027100001390B43C2F88C30236813F0807F11D04D
:10272000284AD2F88400D2F88410666823691B0412
:1027300043EA861300F07060034301F0E0410B436D
:10274000C2F88430236813F0007F0DD062682369DB
:102750001B0443EA8213E26843EA0263A26843EA85
:102760000273184AC2F88430164A136843F0806333
:10277000136000F049FA0646124B1B6813F0006F15
:1027800006D100F041FA801B6428F5D9032002E04D
:10279000012D02D0002003B0F0BD0A4A136823F0D7
:1027A0008053136000F030FA0546064B1B6813F0A7
:1027B000005F0DD000F028FA401B6428F5D90320F3
:1027C000E9E700BF0038024000700040FFFCFF0F47
:1027D000236813F4002F01D0E26B22B113F4801FA1
:1027E0001DD0236CDBB9354AD2F88830D2F8881076
:1027F000606903F4403343EA8013A06943EA00634D
:1028000001F0E0410B43C2F88830D2F88C3023F459
:10281000F853A16A013943EA0123C2F88C302368D6
:1028200013F4001F03D0E36FB3F1006F31D02368BE
:1028300013F0080F19D0214AD2F88810D2F8883046
:10284000606903F4403343EA801301F070610B4385
:10285000E16943EA0173C2F88830D2F88C3023F47E
:102860004033E16A0B43C2F88C30144A136843F0DA
:102870008053136000F0C8F90446104B1B6813F036
:10288000005F19D100F0C0F9001B6428F5D90320BE
:1028900081E70A4AD2F88800D2F888106569236A6D
:1028A0001B0443EA851300F07060034301F0E0412C
:1028B0000B43C2F88830BAE700206CE700380240CA
:1028C00000230F2B00F2EF8070B582B061E08568C5
:1028D0005E000324B44025EA0405CC68B4402C43D0
:1028E0008460456825EA02054C68C4F300129A40EA
:1028F0002A4342605BE0DC08083450F8246003F0AF
:10290000070295000F22AA4026EA020E0A69AA4091
:1029100042EA0E0240F824205DE0092200E0002295
:1029200002FA0EF22A4302345F4D45F824205F4A32
:1029300094686FEA0C0224EA0C054E6816F4801FB6
:1029400001D04CEA0405594CA560E46802EA04058C
:102950004E6816F4001F01D04CEA0405534CE560A4
:10296000646802EA04054E6816F4003F01D04CEAA0
:1029700004054E4C6560246822404D6815F4803F84
:1029800001D04CEA0402494C226001330F2B00F2C3
:10299000888001229A400C6804EA020C32EA04049E
:1029A000F3D14C6804F00304013C012C8FD94A6830
:1029B00002F00302032A09D0C4685D000322AA4082
:1029C00024EA02048A68AA402243C2604A6802F0EC
:1029D0000302022A8FD004684FEA430E032202FA50
:1029E0000EF224EA02044A6802F0030202FA0EF22E
:1029F000224302604A6812F4403FC6D02C4A546C0D
:102A000044F480445464526C02F480420192019A6E
:102A10009C08A51C244A52F8255003F003024FEAF3
:102A2000820E0F2202FA0EF225EA0205214A904296
:102A30003FF475AF02F58062904222D002F58062C9
:102A4000904220D002F5806290421ED002F5806252
:102A500090421CD002F5806290421AD002F580624A
:102A6000904218D002F58062904216D002F5806242
:102A7000904214D002F5806290423FF44EAF0A2299
:102A80004EE701224CE702224AE7032248E70422EC
:102A900046E7052244E7062242E7072240E70822EC
:102AA0003EE702B070BD704700380140003C014075
:102AB00000380240000002400AB1816170470904F9
:102AC00081617047024A136843F480731360704752
:102AD000007000400649CB6823F4E0631B041B0C24
:102AE000000200F4E0600343024A1A43CA607047E0
:102AF00000ED00E00000FA0500B5174BDB68C3F3FA
:102B00000223C3F1070CBCF1040F28BF4FF0040CE3
:102B100003F1040EBEF1060F14D9033B4FF0FF3E44
:102B20000EFA0CFC21EA0C0199400EFA03F322EA9A
:102B300003031943002807DB0901C9B2074B1954E5
:102B40005DF804FB0023E9E700F00F000901C9B2BA
:102B5000034B1954F4E700BF00ED00E000E400E08F
:102B600014ED00E00138B0F1807F0BD24FF0E0238C
:102B70005861054AF02182F823100020986107224D
:102B80001A6170470120704700ED00E010B504465F
:102B90000E4B18784FF47A73B3FBF0F30C4A1068BD
:102BA000B0FBF3F0FFF7DEFF68B90F2C01D901206D
:102BB0000AE0002221464FF0FF30FFF79DFF054B52
:102BC0001C60002000E0012010BD00BF00000020BC
:102BD000080000200400002008B50320FFF77AFF5A
:102BE0000020FFF7D3FFFDF7DDFF002008BD000048
:102BF000034A1168034B1B780B441360704700BFF6
:102C00005C36002000000020014B1868704700BFB0
:102C10005C36002038B50446FFF7F6FF0546B4F1F0
:102C2000FF3F02D0044B1B781C44FFF7EDFF401B15
:102C3000A042FAD338BD00BF0000002010B5044602
:102C400083680269134342691343C26913430168ED
:102C50000868934A024013430B602268536823F4C8
:102C60004053E1680B435360A269236A1A43216809
:102C70008B6823F4306313438B602368894A934243
:102C800019D0894A934229D0884A93423ED0884A33
:102C9000934262D0874A934271D0874A934200F0B0
:102CA0008380864A934200F09480854A934200F0E4
:102CB000A58010233AE0834BD3F8903003F0030350
:102CC000032B09D8DFE803F00204AE0601232DE050
:102CD00004232BE0082329E0102327E0794BD3F8C5
:102CE000903003F00C030C2B0ED8DFE803F0070D37
:102CF0000D0D090D0D0D9D0D0D0D0B00002315E0A3
:102D0000042313E0082311E010230FE06D4BD3F8E8
:102D1000903003F03003202B00F0888019D8002B6E
:102D200000F08680102B40F085800423E069B0F528
:102D3000004F00F0AB80082B00F20C81DFE813F0AD
:102D4000E800FB00E6000A01FE000A010A010A0190
:102D50000101302B70D10823E8E75A4BD3F89030AB
:102D600003F0C003802B69D005D8002B68D0402B1E
:102D700068D10423DAE7C02B66D10823D6E7514B8C
:102D8000D3F8903003F44073B3F5007F5ED006D8DB
:102D9000002B5DD0B3F5807F5CD10423C6E7B3F58B
:102DA000407F59D10823C1E7464BD3F8903003F454
:102DB0004063B3F5006F51D006D8002B50D0B3F567
:102DC000806F4FD10423B1E7B3F5406F4CD1082396
:102DD000ACE73C4BD3F8903003F44053B3F5005FBD
:102DE00044D006D8002B43D0B3F5805F42D10423F2
:102DF0009CE7B3F5405F3FD1082397E7314BD3F809
:102E0000903003F44043B3F5004F37D005D8BBB33F
:102E1000B3F5804F36D1042388E7B3F5404F33D163
:102E2000082383E7022381E702237FE702237DE76C
:102E300000237BE7102379E7102377E7022375E768
:102E4000002373E7102371E710236FE702236DE778
:102E500000236BE7102369E7102367E7022365E788
:102E6000012363E7102361E710235FE702235DE797
:102E700000235BE7102359E7102357E7022355E7A8
:102E8000002353E7102351E710234FE7082B5BD8AB
:102E9000DFE803F01A343A5A375A5A5A1E0000BF74
:102EA000F369FFEF0010014000440040004800407B
:102EB000004C0040005000400014014000780040E9
:102EC000007C004000380240FFF704FA00283DD0A3
:102ED0006268530803EB4000B0FBF2F0A0F110026F
:102EE0004FF6EF739A4233D883B223F00F03C0F347
:102EF000420018432368D860002030E0FFF7FAF959
:102F0000E4E7FFF7C1F8E1E71748E1E7164802E018
:102F1000FFF7E0F900B3636800EB5300B0FBF3F098
:102F2000A0F110024FF6EF739A4217D8236880B2CF
:102F3000D860002013E0FFF7DDF9EBE7FFF7A4F816
:102F4000E8E74FF40040E6E7012008E0002006E053
:102F5000012004E0012002E0002000E00120002325
:102F60006366A36610BD00BF0024F400436A13F03B
:102F7000010F06D00268536823F40033816A0B43C3
:102F80005360436A13F0020F06D00268536823F4BB
:102F90008033C16A0B435360436A13F0040F06D0B9
:102FA0000268536823F48023016B0B435360436A28
:102FB00013F0080F06D00268536823F40043416BF6
:102FC0000B435360436A13F0100F06D002689368F6
:102FD00023F48053816B0B439360436A13F0200FFB
:102FE00006D00268936823F40053C16B0B439360CF
:102FF000436A13F0400F0AD00268536823F4801329
:10300000016C0B435360036CB3F5801F0BD0436A14
:1030100013F0800F06D00268536823F40023816CFC
:103020000B43536070470268536823F4C003416C3C
:103030000B435360EBE72DE9F84305460F46164670
:103040009946DDF820802C68E46937EA04030CBF58
:103050004FF0010C4FF0000CB44553D1B8F1FF3FD5
:10306000F1D0FFF7D1FDA0EB090040452DD8B8F114
:10307000000F2AD02B681A6812F0040FE3D0DA6927
:1030800012F4006FDFD04FF400621A622A6852E82F
:10309000003F23F4D07342E800310029F6D12A68BA
:1030A00002F1080353E8003F23F00103083242E82D
:1030B00000310029F3D12023AB67EB67C5F88030DE
:1030C000002385F8743003201DE02A6852E8003F91
:1030D00023F4D07342E800310029F6D12A6802F1C6
:1030E000080353E8003F23F00103083242E80031AF
:1030F0000029F3D12023AB67EB67002385F87430F8
:10310000032000E00020BDE8F8832DE9F04182B003
:103110001E46836F202B56D104460D469046002A4A
:1031200018BF002953D090F87430012B51D00123DF
:1031300080F874300023C0F8803021238367FFF7C4
:1031400063FD0746A4F85080A4F85280A368B3F545
:10315000805F05D04FF00008002384F8743012E03F
:10316000236913B14FF00008F6E7A8460025F3E7FE
:1031700015F8012B23689A62B4F8522092B2013AF2
:1031800092B2A4F85220B4F852309BB283B10096A8
:103190003B46002280212046FFF74DFFD8B9002D85
:1031A000E6D138F8023B2268C3F308039362E3E7F1
:1031B00000963B46002240212046FFF73CFF60B9C5
:1031C0002023A36700E0022002B0BDE8F0810120C7
:1031D000FAE70220F8E70320F6E70320F4E710B54A
:1031E00082B004460023C0F88030FFF70DFD23684D
:1031F0001B6813F0080F08D12023A367E3670020A2
:10320000206684F8740002B010BD6FF07E43009316
:10321000034600224FF400112046FFF70CFF002860
:10322000EAD00320EFE768B310B50446836F03B319
:103230002423A3672268136823F001031360204648
:10324000FFF7FCFC012813D0636ABBB922685368FE
:1032500023F4904353602268936823F02A03936019
:103260002268136843F0010313602046FFF7B7FF9D
:1032700010BD80F87430FDF7EFFBD9E72046FFF76B
:1032800075FEE3E70120704770B58AB0002800F0B2
:1032900097800546046890F8BD333BB3032385F857
:1032A000BD33E36B13F4807F01D100232B612868C9
:1032B00000F000F92C4654F8106BEC460FCCACE84B
:1032C0000F000FCCACE80F0094E803008CE803007B
:1032D0002B1D0ECB304600F0AFF8044658B1022348
:1032E00085F8BD33012420460AB070BD80F8BC3398
:1032F000FDF704FCD2E70021286800F009FA234614
:1033000016E0C3EBC30205EB8202012182F83D10F7
:1033100082F83C30A2F84230002182F83F1051641C
:103320009164C3EBC30205EB820211650133DBB28A
:1033300069688B42E5D316E0C4EBC40305EB830355
:10334000002283F8FD2183F8FC4183F8FF21C3F8B4
:103350000422C3F80822C4EBC40305EB8303C3F8BB
:1033600010220134E4B2A142E6D82C4654F8106B86
:10337000EC460FCCACE80F000FCCACE80F0094E8A3
:1033800003008CE803002B1D0ECB304600F0EAF85A
:10339000044660B9002385F83830012385F8BD3331
:1033A0006B6A012B08D0286800F0A0F99BE7022384
:1033B00085F8BD33012496E7284600F003F8F2E7CC
:1033C000012490E7034602680121C0F8FC130020A5
:1033D00083F8F403936943F000639361516D024BEA
:1033E0000B435365704700BF0300001082B00023F9
:1033F0000193019B013301930E4A934214D8036950
:10340000002BF6DA00230193036943F00103036103
:10341000019B01330193074A934208D8036913F0D3
:10342000010FF5D1002000E0032002B07047032017
:10343000FBE700BF400D030084B010B5044603A8AD
:1034400080E80E00089B012B1DD1A36B23F4803371
:10345000A363E268164B1340E360E36823F4401370
:10346000E3600F9B012B09D02046FFF7BFFF069BAF
:10347000012B14D0BDE8104004B07047E36843F45A
:103480008013E360F0E7E36843F04003E360204625
:10349000FFF7ACFFA36B43F48033A363E7E7A368B4
:1034A00043F00603A360A36843F02003A360E1E7B1
:1034B000BFFFBDFF836823F00103836000207047D6
:1034C00082B000230193019B013301930E4A934282
:1034D00014D80369002BF6DA00230193890141F027
:1034E00020010161019B01330193074A934208D8EF
:1034F000036913F0200FF5D1002000E0032002B093
:1035000070470320FBE700BF400D030082B000239B
:103510000193019B013301930D4A934212D8036931
:10352000002BF6DA0023019310230361019B013382
:103530000193074A934208D8036913F0100FF5D19D
:10354000002000E0032002B070470320FBE700BF2B
:10355000400D0300D0F800381943C0F800180020CF
:103560007047000084B02DE9F041044607A880E8C8
:103570000E00002306E003F1400204EB820200216A
:10358000516001330E2BF6D9119F27BBD4F80438B4
:1035900043F00203C4F80438A36B23F40013A363BD
:1035A000236843F040032360236843F080032360D3
:1035B0000023C4F8003E04F50065D4F80038C4F8D0
:1035C00000380C9B012B10D1099B4BB900212046E0
:1035D000FFF7C0FF0DE0A36B43F40013A363E7E71D
:1035E00001212046FFF7B6FF03E003212046FFF745
:1035F000B1FF10212046FFF763FF804608B14FF06E
:1036000001082046FFF782FF08B14FF001080023B0
:103610002B616B61EB610AE0C3B94FF00060C2F847
:10362000000900220A614FF67F328A600133079950
:10363000994210D904EB431202F51061D2F8000947
:103640000028E9DB0020C2F80009EAE74FF09040CB
:10365000C2F80009E5E700230AE0C3B14FF0904C3F
:10366000C2F800CB002202614FF67F328260013344
:10367000994211D904EB431202F53060D2F8006B85
:10368000002EEADB4FF0000CC2F800CBEAE74FF067
:10369000006CC2F800CBE5E72B6923F480732B6143
:1036A0000023A3616FF0804363610A9B1BB9A36988
:1036B00043F01003A361A2690A4B1343A3610D9B5E
:1036C0001BB1A36943F00803A361012F04D0404656
:1036D000BDE8F04104B07047A269034B1343A361F6
:1036E000F5E700BF00383C8004000040D0F8003E01
:1036F00023F00303C0F8003ED0F8043843F002037F
:10370000C0F8043800207047406900F0010070479D
:1037100038B50546C36823F0C043C360012913D000
:1037200019BBC36843F08043C36000240120FFF746
:1037300071FA01342846FFF7E7FF08B1312CF5D9BB
:10374000322C14D0002038BDC36843F00053C3604E
:1037500000240120FFF75EFA01342846FFF7D4FF6A
:103760000128EDD0312CF4D9EAE70120EBE7012064
:10377000E9E70000034AD2F8883043F47003C2F846
:103780008830704700ED00E070B5044643890E2B89
:103790001CD90D46C37B1BB991F830300133C3737C
:1037A00060688689037813F0010F0AD0012B12D0CC
:1037B00006221E4907F07EF818B9637B43F0080320
:1037C0006373082E12D0B6F5C16F1FD0204600F0EB
:1037D00009FB002070BD4378002BF2D183785E2B6B
:1037E000EFD1637B43F010036373EAE795F82D3064
:1037F00013F0080FEAD00E21204600F0ADFA0028A1
:10380000E4D12946204606F0BFF8E2E795F82D30CE
:1038100013F0080FDAD00E21204600F09DFA0028A0
:10382000D4D12946204606F02DFCD2E7D0BF0008AF
:103830002DE9F04105460C4616461F46BDF8180016
:1038400001F03AFF80460E21204600F080FAE8B9E8
:103850006168A1F80C803B680B60BB888B80336883
:10386000C1F80630B3884B8195F82C30062B05D172
:10387000AB69214628469847BDE8F081054B4FF4D7
:1038800099720549054807F055F8F1E76FF0010016
:10389000F2E700BF68BF00089CBF00082CBE00080C
:1038A0000B688268934205D011B183600120704794
:1038B0000023FAE7002070470B68C268934205D0E6
:1038C00011B1C360012070470023FAE70020704760
:1038D0006FF00B00704738B504460D4601F054FAFE
:1038E0002946204602F018F838BD000038B50C46CD
:1038F000054670B195F82D3003F00502052A07D171
:1039000014F0010F04D06A6812B113F0080F08D147
:1039100038BD064B40F26D320549064807F00AF8FB
:10392000E8E7291D284606F009FCF1E7E0BF00089A
:1039300010C000082CBE000870B582B004461546C1
:103940000E4639B175B1326863689A4212D10020CF
:1039500002B070BD104B40F2CB121049104806F077
:10396000E9FFEFE70C4B4FF4E6720C490C4806F008
:10397000E1FFE8E701922B6001A92846FFF7ABFFC2
:103980003EB13368636001212046FFF7AFFF01209D
:10399000DEE70023F6E700BFE0BF000834C0000800
:1039A0002CBE0008704700002DE9F04182B00446AB
:1039B00016461D460F46D9B1E6B1EDB10FB13B68D1
:1039C000E3B901AA39462046FFF7B6FF4FF00108D8
:1039D000002231462046FFF763FF00222946204699
:1039E000FFF76AFFB8F1000F0BD002B0BDE8F0811D
:1039F000074FE1E7064EE0E7054DDFE74FF000082F
:103A0000E6E701AA39462046FFF796FFEDE700BF3B
:103A1000C8E0000870B5059C064610B3002C29D0FC
:103A2000002930D0002A30D0002B30D00020706028
:103A3000B060F060364D7561B08486F82D00F0619D
:103A4000049830623348007886F830000698306178
:103A50003046FFF7A9FF3046A04700283ED000209F
:103A600050E02D4B40F227122C492D4806F062FF02
:103A7000304647E0284B4FF494722A49284806F014
:103A800059FF00203EE02849CCE7274ACCE7264BE7
:103A9000CCE7002386F8303024E01F4B40F28B1235
:103AA00022491F4806F046FF09E094F8302096F8B6
:103AB00030309A420ED024687CB1B442EDD001354A
:103AC000FF2DF2DD144B40F28D121949144806F017
:103AD00031FFEAE7013386F830303CB196F83030F8
:103AE000FF2BD6D0134B1C680025E5E796F8303045
:103AF000FE2B08D00133074A13700E4B1A68326050
:103B00001E60304670BD034B00221A70F5E700BFFF
:103B1000D138000868360020E0BF000844C0000823
:103B20002CBE000860C00008C8E0000884C000087F
:103B300098C0000864360020014B1860704700BF31
:103B40006036002008B528B190F82D3013F0010F31
:103B500008D008BD074B4FF454720749074806F0D8
:103B6000E9FEF6E743F0010380F82D300321FFF76B
:103B7000BDFEEEE7E0BF0008C8C000082CBE00088C
:103B800008B560B190F82D3013F0010F06D003F0A6
:103B9000FE0380F82D3013F0080F08D108BD054B47
:103BA00040F29B320449054806F0C4FEF6E706F0F1
:103BB0004BFAF3E7E0BF0008E4C000082CBE0008A1
:103BC00000B1C16170470000024658B1064B186849
:103BD00038B190F830300133DBB2934203D0006843
:103BE000F6E770470020704764360020014B012241
:103BF0001A7070476936002010B4002404604160D8
:103C0000028143819DF8043003739DF808304373AB
:103C100001238373C4735DF8044B704770B50C4681
:103C200016460546C8B1002D18BFB4F5803F24D212
:103C30002CB3A2B22B8913449BB2934221D395F9A2
:103C40000C10002911DBF6B169680C1B6C606989E6
:103C50000A446A812B81002010E00C4B40F2DF12F5
:103C60000B490C4806F066FEDDE769680C1B05F1A0
:103C70001001A142EAD9012000E0012070BD00201E
:103C8000FCE70120FAE70120F8E700BF04C10008C3
:103C900034C100082CBE000808B5074B00221A707A
:103CA000064B186800E0C06820B1436F002BFAD0C3
:103CB00000F0D4FE08BD00BF693600206C3600203D
:103CC000F0B583B006460D461446412A18BF012AB6
:103CD0000FD1072001F0A2FE074638B1002301935F
:103CE00000942B462A463146FFF786FF384603B03C
:103CF000F0BD044B4FF4A5720349044806F01AFEC8
:103D0000E7E700BF04C1000840C100082CBE00085E
:103D100030B583B08E461C46069900F1030C2CF09A
:103D2000030C0EEB0C00BDF81C3098420DD801B10D
:103D30006144254602230193009273467246204651
:103D4000FFF75AFF284603B030BD0025FAE708B553
:103D50000022FFF763FF08BD38B50C46054698B151
:103D6000002D18BFB4F5803F1FD204B3A2B26B89F7
:103D7000934211D36968214469609B1A6B812B8936
:103D80009A1A2A81002038BD0A4B40F24B220A4978
:103D90000A4806F0CFFDE3E7064B40F255220849FA
:103DA000064806F0C7FD0120EDE70120EBE7002003
:103DB000E9E700BF04C1000834C100082CBE0008B8
:103DC00054C1000808B5002902DBFFF727FF08BD32
:103DD0004942FFF7C1FFFAE708B50122FFF7F2FFFA
:103DE00008BD000070B510B10446002517E0284B4F
:103DF0004FF437722749284806F09CFD00252846D5
:103E000070BD234B40F2F1222449234806F092FD75
:103E10000AE02369204698470135EDB23446002C6C
:103E2000EDD0A37B002BECD0A37B013BDBB2A373D3
:103E3000002BE4D12668237B03F00F03627B12F092
:103E4000020F0AD02369002BE3D1114B40F2FF226D
:103E50001349114806F06EFDDBE7022B06D0012B5B
:103E600009D06BB9204601F0E9FED5E721460820CC
:103E700001F0EEFDD0E72146072001F0E9FDCBE798
:103E8000034B40F20F320749034806F053FDC3E7E6
:103E900004C1000834C100082CBE000874C1000829
:103EA0008CC10008B0C100082DE9F04782B00E4671
:103EB000904685B2B2F5C17F46D004460ED8012A9D
:103EC00002D0412A40F08480424631460020FFF76C
:103ED000F7FE8146484602B0BDE8F087B2F5207F84
:103EE00076D1033525F00305ADB2CA1C93B223F099
:103EF00003031D44ADB205F1100080B222F00302AD
:103F000095426FD3824270D801F0B4FF81460028F9
:103F1000E0D004F110010144033100230193CDF8F6
:103F200000803346324621F00301FFF765FED9F8E1
:103F3000043013F0030FCDD02D4B4FF491722D4967
:103F40002D4806F0F7FCC5E70027B94613E0FFF758
:103F50004DFEB9F1000F02D04846FFF743FFB946C6
:103F6000B8E7B9F1000F31D0CAF80070361BB6B20D
:103F70000025002EAED0BA46082001F04FFD0746BE
:103F80000028E4D0EC1C24F00304A4B2C4F514749B
:103F9000A4B2B44228BF344605F1100101440331F4
:103FA00000230193CDF800802346324621F003011F
:103FB000FFF722FE7B6813F0030FD2D00C4B4FF4B7
:103FC00080720E490C4806F0B5FCCAE7B946CDE749
:103FD000074B40F227120A49074806F0ABFC4FF0A6
:103FE000000977E74FF0000974E74FF0000971E727
:103FF00004C1000828C200082CBE0008C4C1000883
:1040000054C20008F8B50E460446B8B12789B74235
:104010002ED935466389AB4218D2EB1A9DB223895B
:10402000F21B134423812468002CF3D11A4B40F275
:10403000AF121A491A4806F07DFCEBE7164B4FF415
:10404000CC721849164806F075FCDFE7227B12F0A7
:104050000F0F05D1AB4203D0637B13F0020F08D0E2
:1040600065812581206808B1FFF7BCFE002323602D
:10407000F8BD63681B1BE91889B2204601F038FEC1
:1040800004460028ECD1044B40F2BD120649044816
:1040900006F050FCE4E700BF04C1000888C2000835
:1040A0002CBE000870C20008A0C200080346002011
:1040B00002E0013080B21B68002BFAD1704700008B
:1040C00070B108B5837B0133DBB2837303B108BDE4
:1040D000044B40F242320449044806F02BFCF6E758
:1040E000704700BF04C10008BCC200082CBE000815
:1040F00038B504460D46002918BF00280CD1154BD1
:1041000040F259321449154806F014FC19E023898D
:1041100029890B44238114462268002AF7D1228979
:1041200063899A420ED1236833B10A4B40F263325D
:104130000B490A4806F0FEFB23892A891344238190
:10414000256038BD034B40F262320649034806F051
:10415000F1FBE8E704C10008D0C200082CBE00084B
:1041600038C3000808C300082DE9F041002918BF32
:10417000002808D005460C4602890B899A4202D3D2
:104180000027B8463CE03B4B40F2C9323A493B4835
:1041900006F0D0FB6FF00F006AE0364B40F2D932E8
:1041A0003749364806F0C6FB3EE0324B40F2DA3281
:1041B0003449324806F0BEFB39E02D68B5FA85F384
:1041C0005B09002C08BF002313B94FF0000836E04C
:1041D000284B4FF479722C49284806F0ABFB6FF05E
:1041E0000F0045E023687BB3224B40F2E9322749B8
:1041F000224806F09FFB6FF0050039E0002C36D016
:104200006E89A6EB08066389DB1B9E4200D31E461F
:104210006868616832463944404406F05BFBB0444C
:1042200037446B894345B8D36389BB42BDD36389A7
:10423000BB4201D8246800276B894345BDD01CB11F
:10424000628923899A42CDD0002DD7D06A892B89E3
:104250009A42D3D12B68002BD0D0064B40F2EE32DD
:104260000A49064806F066FB6FF0050000E00020F2
:10427000BDE8F08104C1000848C300082CBE000856
:1042800078C3000890C30008ACC30008BCC3000892
:104290002DE9F84330B188469146054669B10027BB
:1042A0003E462AE01B4B40F20A421B491B4806F0DF
:1042B00041FB00273846BDE8F883164B40F20B421D
:1042C0001749164806F036FB0027F3E76C89E41A15
:1042D000A4B2A14500D24C4669682246194408EBB5
:1042E000060006F0F7FA2744BFB22644B6B2A9EB9F
:1042F00004041FFA84F900232D68B9F1000F18BFD8
:10430000002DD7D0002BE1D069899942DED85B1A05
:104310009BB2F1E704C10008E8C300082CBE000806
:1043200008C400082DE9F84348B18846914605467F
:1043300079B10389934216D3164600272EE0224B0B
:1043400040F2B3422149224806F0F4FA6FF00F0020
:104350002FE01D4B40F2B4421E491D4806F0EAFA18
:104360006FF00F0025E0184B40F2B5421A4918488B
:1043700006F0E0FA4FF0FF301BE0134B40F2BD4275
:104380001649134806F0D6FA0BE0224608EB07015F
:10439000686806F09FFA361B27442D6836B1002D59
:1043A000EBD06C89B442F0D33446EEE74F4502D1EE
:1043B0000020BDE8F883044B4FF499620849044893
:1043C00006F0B8FA0020F4E704C100082CC4000885
:1043D0002CBE000844C4000860C4000880C4000863
:1043E00098C4000838B514460A462189FFF75CFDD9
:1043F000054618B12146FFF7B7FE08B9284638BD73
:10440000034B40F224520349034806F093FAF5E7C0
:1044100004C10008B0C400082CBE00084FF0000C16
:104420000BE0164B4FF440421A800FE00CF1010CE8
:104430001FFA8CFCBCF5804F1DD2104A1388013343
:104440009BB213804FF6FF729342EAD000200328FC
:104450000ED80B4B53F820301B6833B1D98A074A6A
:1044600012889142E2D0DB68F7E70130C0B2EEE794
:10447000024B188870470020704700BF10000020D2
:1044800010CB000838B504460D4639B9074BFF225A
:104490000749084806F04EFA00E0E4682CB1E36FE3
:1044A000AB42FAD10023E367F7E738BDC4C4000884
:1044B000F0C400082CBE000838B5054620B12B7D9D
:1044C000012B09D1012417E00D4B40F211120D49C7
:1044D0000D4806F02FFAF2E7094B4FF489720B49A9
:1044E000094806F027FAEDE7094B53F8243029462E
:1044F0001868FFF7C7FF0134032CF5D938BD00BF9A
:10450000C4C4000818C500082CBE000824C5000853
:1045100010CB000810B50446037D012B04D02146C2
:10452000022001F095FA10BD034BDF220349044835
:1045300006F000FAF3E700BFC4C400083CC5000859
:104540002CBE000838B5054648B12B7D042B1FD082
:10455000072B26D0032B0AD00024204638BD174B4A
:104560004FF4CE721649174806F0E4F9EDE72846F5
:1045700004F0D6F8044608B905232B75D4B1B4F17C
:10458000FF3FEAD16B8B43F008036B830024E4E721
:10459000284604F0C5F804460028EFD105232B7502
:1045A000ECE7284604F0BCF804460028E6D10923CD
:1045B0002B75E3E7284604F031FACEE7C4C40008BF
:1045C00018C500082CBE0008094B186878B110B552
:1045D00001E0204654B1C468438B13F0080FF8D0B3
:1045E00023F008034383FFF7ADFFF2E710BD7047E8
:1045F0006C36002008B506F0B5F9024B0343024AB9
:10460000138008BD00C0FFFF1000002010B5044655
:10461000037D012B04D02146012001F019FA10BDC1
:10462000034BD4220349044806F084F9F3E700BFA2
:10463000C4C4000858C500082CBE000838B504469C
:1046400090B1656A218D6818E26AB4F832C0BCF591
:10465000866F94BF02EB0C0302F58663C31A002B2E
:104660000ADB6185801A38BD0E4B40F2A6320E4936
:104670000E4806F05FF9E4E7AB1A002B03DD0023D8
:1046800063850020EFE7551BB5F5803F01D26585B6
:10469000F7E7044B40F2B6320549044806F04AF900
:1046A000F5E700BFC4C400086CC500082CBE0008B4
:1046B00090C5000838B5B0B10C460546037D012B06
:1046C00019D02B8D191989B2B1F5066F01D88B421B
:1046D00019D94FF406632B852846FFF7AFFFB0F5D5
:1046E000067F12D238BD0D4B40F2CF320C490D4837
:1046F00006F020F9F6E7094B40F2D2320A490948A0
:1047000006F018F9DDE72985E6E76B8B43F0020335
:104710006B83284604F082F9E4E700BFC4C40008B4
:10472000ACC500082CBE0008C4C5000850B110B5C7
:104730000446406808B1FFF755FB2146032001F00D
:1047400087F910BD704738B110B50468FFF7EEFF68
:104750002046002CF9D110BD7047000038B5054641
:1047600088B1032001F05AF9044650B128686968FD
:10477000AA68EB6820606160A260E3606068FFF790
:104780009FFC204638BD044B40F282620349044836
:1047900006F0D0F8E5E700BFC4C40008ECC5000887
:1047A0002CBE000800B101617047000080B138B52F
:1047B0000C460546037D012B02D0C5F8844038BD68
:1047C000044B40F2DF720449044806F0B3F8F4E702
:1047D000704700BFC4C4000808C600082CBE00080B
:1047E00080B138B50C460546037D012B02D0C5F8D3
:1047F000804038BD044B40F2F3720449044806F08F
:1048000099F8F4E7704700BFC4C4000830C6000838
:104810002CBE000880B138B50C460546037D012B3F
:1048200002D0C5F8904038BD044B40F60D02044953
:10483000044806F07FF8F4E7704700BFC4C40008DE
:1048400058C600082CBE000870B548B10D46144685
:104850000646037D012B0BD0C6F88C50747770BDD3
:10486000074B40F63D020749074806F063F8F6E7B4
:10487000034B40F63E020549034806F05BF8EBE7C0
:10488000C4C4000880C600082CBE000898C60008F2
:1048900008B530B1074B1868074A12681044186011
:1048A00008BD064B40F6AF020549064806F042F83F
:1048B000F0E700BF0C0000207C360020C4C40008D4
:1048C000B8C600082CBE000838B505460C465AB1DB
:1048D00044B1A38C33B1282B0ED9283B9BB29D4207
:1048E00028BF1D46284638BD044B40F6C502044982
:1048F000044806F01FF8EBE70023F0E7C4C4000803
:10490000D4C600082CBE0008F8B5002853D01E46B7
:104910000446002959D0037D002B60D10B68436009
:104920000283007A002864D0FFF74EF90546002D77
:104930007AD00CB1236823B915F1040F77D06B68D6
:104940002360E78A27B9FFF769FDE082002871D06C
:104950002046FFF79DFF00216162206501386064F9
:10496000A065E0654FF4066363852385E162A4F8E2
:1049700060304FF406706086221D2946FFF7A4FFC1
:1049800060860123A4F84830C4F8886002212046DC
:1049900003F016FE0546002844D102232375002F9C
:1049A00034D0264B1B68A34228D06BB3DA68A242EE
:1049B00028D01346F9E7224B40F2354221492248DC
:1049C00005F0B8FF6FF00F052CE01D4B40F23642AA
:1049D0001E491D4805F0AEFF6FF00F0522E0184B91
:1049E0004FF487621A49184805F0A4FF6FF00905D3
:1049F00018E0201D04F072FF054698E7DA680F4BB7
:104A00001A6001E0E268DA600023E360114B1A6883
:104A1000E2601C6004F0A0FA0F4B01221A702046DD
:104A200003F0FCFF2846F8BD6FF00305FAE76FF0CE
:104A30000305F7E76FF00105F4E700BF74360020C7
:104A4000C4C40008FCC600082CBE000818C7000833
:104A500034C700086C3600207036002010B50446BC
:104A6000406F18B1FFF76FFE0023636710BD0000B1
:104A700010B508B30446037D002B18BF0A2B1AD0CB
:104A8000012B18D0806F18B1FFF7ACF90023A36792
:104A9000636F13B12046FFF7E1FF4FF6FF732386E4
:104AA000E06EFFF750FE206FFFF74DFE0023E36638
:104AB0002367A4F8683010BD034B40F65102034948
:104AC000034805F037FFF6E7C4C4000864C70008D0
:104AD0002CBE000838B505460C4649B185B12B6897
:104AE000A34215D0CBB1DA68A24214D01346F9E73D
:104AF000254B40F683022549254805F01BFFEDE7CD
:104B0000214B40F684022349214805F013FFE6E7D4
:104B1000DB682B6001E0E268DA600023E360204696
:104B2000FFF7A6FF237D0A2B18BF012B03D0638B51
:104B300013F0010F21D1237D012B1AD0E36E33B185
:104B4000114B40F693021449114805F0F3FE236F10
:104B500033B10D4B40F6940210490D4805F0EAFEC2
:104B6000636F33B1084B40F696020D49084805F0D3
:104B7000E1FE00232375E38238BD43F00203638323
:104B8000204603F04BFFD6E7C4C4000880C70008E6
:104B90002CBE00089CC70008BCC70008D4C700088A
:104BA000F0C700082DE9F04784B0F8B10D4604467F
:104BB000037D012B22D0237D0A2B27D0D4F85080EF
:104BC000D4F82490D4F890602769002B47D1B4F82A
:104BD00016A0BAF1000F4CD02D4B1B68A3421DD07C
:104BE00013B3DA68A2421DD01346F9E7294B40F20D
:104BF0003D222949294805F09DFE2DE0254B4FF423
:104C000010722749254805F095FED4E7214625482E
:104C1000FFF760FF2046FFF7F9FC1DE0DA681C4B48
:104C20001A6001E0E268DA600025E560AA46206FBC
:104C300008B1FFF788FDE06E08B1FFF784FD606FF3
:104C400008B1FFF780FDB5B92046FFF7DFFC1EB1C4
:104C50006FF00C013846B04704B0BDE8F087B4F8F7
:104C600016A021461048FFF735FF104B01221A709D
:104C7000DDE70025DBE7231D228B0292CDF804A09F
:104C8000009323464A464146204603F045FEDBE7B3
:104C900074360020C4C4000808C800082CBE0008F0
:104CA00024C80008843600206C36002070360020AE
:104CB00008B50121FFF776FF08BD000008B50A4BD3
:104CC0001B684FF0000C604600E0DB6843B1196AD6
:104CD000064A1268521A6245F7D394461846F4E71A
:104CE00008B1FFF7E5FF08BD843600207C360020C0
:104CF00010F0800F01D108B970477F2038B5013816
:104D0000C2B20F4B1B684FF0000C604607E00D4A23
:104D10001268186AA2EB000C0A461846DB685BB101
:104D2000597D9142F3D3F9D1064C24681D6AA4EB56
:104D3000050EE645F2D3EAE708B1FFF7B9FF38BD43
:104D40006C3600207C36002070B50C46054660B9F4
:104D50000A4B4FF410620A490A4805F0EBFD04E0E3
:104D6000E6682046FFF7A4FF34462CB122682B6882
:104D70009A42F5D0E468F8E770BD00BFC4C40008EB
:104D800058C800082CBE000800B338B50D460446CC
:104D9000036803B938BD0E4B1968FFF7D5FF0D4BFB
:104DA00019682046FFF7D0FF002DF3D02B68002BA9
:104DB000F0D0094B1B6800E0DB68002BEAD01968D3
:104DC00022689142F8D12A681A60F5E7704700BF5F
:104DD0006C360020743600207836002038B5044642
:104DE000A0F10803DBB2012B04D8104B1B68002193
:104DF000084608E00E4B40F2DD620E490E4805F011
:104E000099FDF2E7DB685BB11A7DA242FAD10B4A49
:104E100012681D6A521B8A42F4D311461846F1E704
:104E200010B10021FFF7BEFE38BD00BF6C36002078
:104E3000C4C400088CC800082CBE00087C360020C2
:104E400038B50546012000F0E9FD044668B354B3C7
:104E50009C220021204605F065FD65754FF48663B0
:104E6000A4F864304FF4066262852285FF22E27264
:104E70004FF4067262860622A4F84020E2874FF6BD
:104E8000FF7222860122A4F848201A4A1268226280
:104E9000194A1278A277A4F84A30184BC4F8843023
:104EA000174BC4F89430204638BDFFF78DFBFFF751
:104EB00005FF012000F0B2FD04460028C7D10920FB
:104EC000FFF78CFF012000F0A9FD04460028BED1A9
:104ED0000820FFF783FF012000F0A0FD0446002812
:104EE000B5D12846FFF704FF012000F097FD0446E6
:104EF000ADE700BF7C3600208136002099500008C5
:104F000000DD6D0008B54020FFF79AFF08BD0000E6
:104F100030B585B00D46044628B3002D2FD0237D33
:104F2000072B18BF042B2AD1A36F23B3638B13F075
:104F3000100F2ED0231D228B0292E28A0192009341
:104F40002346626A216D204603F0E6FC2046FFF707
:104F50008FFD384B1B68A34223D043B3DA68A242CB
:104F600023D01346F9E7344B4FF4AF72334934483A
:104F700005F0E0FCD1E7238DB3F5066FD6D1237D94
:104F8000012B3FD0022B49D013B32046FFF7DAFAAA
:104F900036E0294B4FF4B2722A49294805F0CAFC81
:104FA000C8E7DA68234B1A6001E0E268DA600023A0
:104FB000E360254B01221A70244B1B68A34204D0E6
:104FC0002046FFF723FB00201AE002F099FCFAE7E5
:104FD000E38A8BB11E4B1B68A34205D053B1DA683C
:104FE000A24205D01346F9E7DA68194B1A6001E0CE
:104FF000E268DA600023E3602046FFF707FB002049
:1050000005B030BD2046FFF757FA21461148FFF79B
:1050100061FD2046FFF77EFA0020F1E721460548B2
:10502000FFF758FD084B01221A702046FFF7EEFAF1
:105030000020E5E76C360020C4C400089CC80008C6
:105040002CBE0008BCC8000870360020186C002078
:10505000743600207836002008B560B10346027D22
:10506000012A03D0428B42F01002428301211846EC
:10507000FFF74EFF08BD054B4FF4F4720449054895
:1050800005F058FC6FF00F00F4E700BFC4C400083F
:10509000D8C800082CBE000810B551B11446084607
:1050A0008AB11189FFF706FB2046FEF79BFE002020
:1050B00010BD084B4FF4D3620749084805F03AFC8D
:1050C0006FF00F00F4E70BB10020F1E7FFF7C4FF2A
:1050D000EEE700BFC4C40008F0C800082CBE0008FA
:1050E000F8B518B30446866F777B00238367D0F842
:1050F00084502DB3324601460069A84705463DBBA2
:1051000017F0200F2AD0238DB3F5066F01D001339D
:105110002385D4F884600EB300231A462146206903
:10512000B04710F10D0F19D1054617E00C4B40F2B6
:1051300009620C490C4805F0FDFB6FF00F050DE00E
:105140000023324601461846FFF7A6FF0546D6E77C
:1051500015F10D0F02D0A6676FF004052846F8BDC3
:10516000C4C400080CC900082CBE000870B51C4A55
:105170001378013313701B4B1C6813E043F00203D8
:105180006383204603F04AFC638B23F003036383AD
:1051900013E023F0080363832046FFF7D3F910E000
:1051A000E5682C46DCB1A27F0D4B1B789A42F7D004
:1051B000A377638B13F0010FE0D1638B13F0080F1B
:1051C000E7D1E568A36F002BEBD0074E00233370C7
:1051D0002046FFF785FF3378002BE2D0CBE770BD88
:1051E000813600206C360020703600202DE9F04119
:1051F00084B0994A136801331360984A13780133D5
:105200001370974B1C68002592E1964B40F2BE420A
:105210009549964805F08EFB90E1924B40F2BF42D3
:105220009349924805F086FB8CE18E4B4FF49862CF
:1052300090498E4805F07EFB88E12546E46877E1D9
:1052400094F84230052B40F28C8101266EE0854BAC
:1052500040F2D5428849854805F06CFB98E120462C
:1052600003F0D2F858B1002384F8983094F89930BC
:10527000062B7CD8013384F89930002656E020466E
:1052800003F0CCFB0028EED100264FE0B4F930301B
:105290009BB247F6FE72934201D801332386B4F9DC
:1052A0003020B4F940309A4240DB204603F06AFADD
:1052B00020B1236F002B39D1E36EBBB3237D022BCA
:1052C00014D094F842200C2A28BF0C22B4F93C10C8
:1052D000B4F93E3003EBE10368498A5C934047F63A
:1052E000FE7293421EDC1BB2A4F8403000232386DA
:1052F000B4F86030B4F84820934228BF13465B08E6
:10530000A4F84A30618E4A0092B2934201D2A4F8C6
:105310004A20A4F848100023A4F86A30204603F07D
:10532000D3FC03E047F6FF73DEE70126237D062B5F
:105330001FD0627A12F0080742D0072B18BF042B47
:105340003DD1454B1A68236AD21AD4F894104C4BBD
:105350000B444C48A0FB0303B2EB531F16D9013694
:10536000F6B201272CE00126E0E70026DEE7002662
:10537000DCE7628B12F0100FDBD0216A364A12682C
:10538000521A282AD5D90136F6B2D2E794F89B30C2
:105390003D4800FB03113B4BA3FB0131B2EB511F16
:1053A00001D800270CE0204603F0C4FC00283AD1C5
:1053B00094F89B30013384F89B30002700E00027ED
:1053C000636F53B1236A244A1268D21AB4F9403089
:1053D00003EB4303B2EB430F27D2237D032B28D0EB
:1053E000092B2FD0002E53D1E668237F0133DBB287
:1053F0002377627F9342C0F0998000232377234A6A
:105400001370D4F88C30002B00F08880214620697E
:1054100098471E4B1B78002B7FF4F3AE00287FD0FB
:105420002546344684E00027CAE72046FFF716FBEE
:10543000D3E7216A084A1268521A282AD0D90136BD
:10544000F6B2CDE7226A044B1B689B1AF02BC9D930
:105450000136F6B2C6E700BF7C3600208136002058
:105460006C360020C4C4000834C900082CBE0008F3
:1054700060C900088CC90008F0C9000800CB00080A
:10548000B84C0A00D34D6210F82401007036002099
:10549000D4F890602046FFF7EBFA1DB36F4B1B6802
:1054A000A34217D0E368EB605FBBD4F81080E768D5
:1054B0002046FFF7ABF86A4B00221A701EB16FF05E
:1054C0000C014046B047664B1B78002B7FF499AE29
:1054D0003C462DE0634B40F26D526349634805F052
:1054E00029FADFE75D4B1B68A34206D05D4B40F213
:1054F00071525F495D4805F01DFAE268574B1A602A
:10550000D2E7231D626A216D208B0290E08A019010
:1055100000932346204603F0FFF9C6E7002078E712
:10552000204603F07BFA2546344601E02546344602
:10553000002C50D0237D002B3FF467AE237D012B40
:105540003FF46BAE237D0A2B3FF46FAEA27F494B35
:105550001B789A423FF471AEA377237D022B3FF470
:105560006FAE94F842300B2B3FF6DFAE94F89960A3
:10557000002E3FF48BAE236F33B13A4B40F2D4424E
:105580003D493A4805F0D6F9E36E002B3FF45FAE93
:1055900094F89A300B2B3FF6E6AE94F89930013B25
:1055A000364AD25C94F89830934202D2013384F8A0
:1055B000983094F898309342FFF4D7AEB4F8601066
:1055C00000297FF44CAE204603F0E2FB00283FF4B4
:1055D0004AAE0026AAE62A4B1D6807E02A6A294B34
:1055E0001B689B1AF02B0ED82C46ED68002D31D08D
:1055F0002B7D0A2BF2D01B4B40F2A15222491B48B3
:1056000005F098F9EAE72846FFF732FA9CB11C4BFF
:105610001B68AB4207D0EB68E360EE682846FEF7F4
:10562000F5FF3546E2E70F4B40F2AF5217490F48FE
:1056300005F080F9EFE7124B1B68AB4206D0094B2F
:1056400040F2B3521249094805F074F9EA680C4B6C
:105650001A60E2E704B0BDE8F08100BF6C360020BC
:1056600070360020C4C4000828CA00082CBE0008F8
:1056700054CA000881360020BCC9000820CB0008AD
:10568000843600207C36002080CA0008B0CA00089A
:10569000D8CA000808B5FFF769FD064A1378013338
:1056A000DBB2137013F0010F00D108BDFFF79EFDB0
:1056B000FBE700BF80360020030A43EA002080B2E7
:1056C0007047030203F47F0343EA0063020A02F413
:1056D0007F42134343EA106070470000F8B50E465E
:1056E00015460746C8B1FEB13C7A3CB11E4B5B681B
:1056F00093F830300133DBB29C4225D1DDB12FB3BA
:105700003B682BB3184A5269B2F1FF3F22D0B1680F
:1057100053400B4220D0002017E0144B872214493D
:10572000144805F007F9DEE7104B882212491148AA
:1057300005F000F9D8E78FB13B688BB10A4A52698E
:1057400093420FD0284600E00020F8BD0120FCE77E
:105750000120FAE70120F8E70120F6E70120F4E74D
:105760000120F2E70120F0E77865002028CB00084F
:1057700054CB00082CBE000878CB000808B505F013
:10578000F1F8024B0343024A138008BD00C0FFFF3B
:10579000120000202DE9F04F83B00F468146D0B1B2
:1057A00007B3B9F80A30072B23D9D9F80440524B74
:1057B0001968586904F00CFF80462088FFF77CFFC9
:1057C00082466088FFF778FF05464C4B1C684FF017
:1057D000000B5E4619E04A4BCF224A494A4805F081
:1057E000A9F8DDE7464BD0224849474805F0A2F822
:1057F000D7E74846FEF7F6FA03B0BDE8F08FA346B8
:10580000A38A534526D02646E468002C2FD0638A0D
:10581000AB42F8D1424639462046FFF75FFF0028E9
:10582000F1D0237C13F0040FEAD1BBF1000FE6D0D6
:10583000B8F1000FE4D0304B5B69B3F1FF3FDFD12B
:10584000DBF800207B689A42DAD022689342D7D1F5
:10585000A346D5E763681BB1274A12699342D2D1A8
:105860002EB1E368F360254B1A68E2601C6084B1D6
:105870008CB108214846FEF76FFAA8B91CB3A56998
:10588000EDB1E069CDF800A0214B4A462146A8477A
:10589000B2E75C46ECE77A68174B5B699A42E8D05E
:1058A0004846FEF79FFAA7E7154B4FF4B87219491F
:1058B000154805F03FF84846FEF794FA9CE748463D
:1058C000FEF790FA98E7B8F1000F05D10A4B5B6933
:1058D00003F0F003E02B03D14846FEF783FA8BE791
:1058E000054B9989083109B24846FEF775FA03213C
:1058F000484604F085FFEFE77865002088360020F1
:1059000028CB0008A0CB00082CBE0008B8CB0008AC
:1059100088650020D4CB0008B8B102460368A3B163
:1059200099B10B688BB1094B1B686BB110B401E0E6
:10593000DB6833B110681C688442F9D108681860CC
:10594000F6E75DF8044B70477047704788360020D3
:1059500008B500F053F900F051F8FEF723F8FFF70F
:105960000DFFFEF747FE03F031FB08BD10B583685D
:105970001C6824B122681A6014F0030F01D120467C
:1059800010BD044B4FF48C720349044804F0D2FF5D
:10599000F5E700BFF0CB000820CC00082CBE0008C3
:1059A00038B505460C4611F0030F05D1AB681B68EE
:1059B0002360AB681C6038BD034B4FF4B6720349DB
:1059C000034804F0B7FFF1E7F0CB000844CC00082F
:1059D0002CBE0008836800221A604368033323F05A
:1059E000030307E081680968196081680B6001881A
:1059F0000B44013241889142F4DC704710B5002419
:105A000006E0054B53F82400FFF7E4FF0134A4B28D
:105A1000082CF6D910BD00BF0CCD000808B5082829
:105A200005D8074B53F82000FFF7A0FF08BD054B32
:105A300040F257120449054804F07CFF0020F5E7C6
:105A40000CCD0008F0CB000864CC00082CBE000888
:105A500008B5082806D821B1064B53F82000FFF7F7
:105A60009FFF08BD044B4FF4D5720449044804F06D
:105A700061FFF6E70CCD0008F0CB000884CC0008ED
:105A80002CBE0008014B1B68184470479465002029
:105A9000024B1B68C01A80B2704700BF946500209B
:105AA000F8B50446FFF7F4FF074625882846FFF7B8
:105AB000E9FF064664882046FFF7E4FFB5F5C86FA6
:105AC00010D8B4F5C86F0FD8BC4202D00388BB42CF
:105AD0000CD1094B1B68B3420AD07388BB4209D171
